:02000000FD2BD6
:100448008312A6002608A5002508A000A101A10A7C
:10045800273093228312270808008312A90029084D
:10046800A7002708A0000230A8002808A1002A3009
:10047800932283122B08A6002A08A500080008303A
:10048800831681008B010130831285000E3083169C
:10049800850006309500073083129900831699016C
:1004A800080043220030312283122608AE002508B6
:1004B800AD00033024228312C9004908AF0002307E
:1004C80024228312CA004A08B0000430242283126E
:1004D800CB004B08B1000223562A8312A401A501C0
:1004E800201C7C2A2208A4070318A50A2308A507AC
:1004F80001300310A20DA30DFF3E031D7D2A01301C
:100508000310A10CA00CFF3E031D842A200821041F
:10051800031D742A2508A1002408A00008008312DE
:10052800A4002408A2002208A30083169C18992A74
:100538008312200883169B0001308312A102210A2E
:100548000319080083169C18A62A7F308312A2007C
:10055800220883169C051C141A088312A20023087B
:1005680084002208831380000130A2002208A30718
:100578000130A200220883169B07A02A00308312AC
:10058800AC000030AB000030AA000030A900201CED
:10059800E12A2408A907250803110318013E031DB1
:1005A800AA07260803110318013E031DAB072708F5
:1005B80003110318013E031DAC070130A800031006
:1005C800A40DA50DA60DA70DA80BE32A0130031055
:1005D800A30CA20CA10CA00CFF3E031DEB2A2308C0
:1005E800220421042004031DCB2A2C08A3002B0875
:1005F800A2002A08A1002908A00008008312C60149
:10060800C701C8012D08A0002E08A100A201A3015E
:100618000030A7000030A6002B30A5006730A400EA
:10062800C22283122308B7002208B6002108B500A9
:100638002008B4002F08B200B3013208A000330824
:10064800A1005730A2000430A300712283122108B0
:10065800BD002008BC003008B200B3013208A00079
:100668003308A1005730A2000430A300712283127E
:100678002108BF002008BE003108B200B3013208CB
:10068800A0003308A1005730A2000430A300712253
:1006980083122108C3002008C200C401C50100302C
:1006A800BB000030BA000030B9000030B800C0010B
:1006B800C1010508C600C80D4814461D4810C808E1
:1006C800031D4710480A031D4714471842084718D6
:1006D800C400471843084718C50047184616C408F9
:1006E8000319C503C4030001440445040319461251
:1006F800471CC001471CC101471C4711471C932BCD
:100708004719952B4715C711C61EC7153C08C61AA9
:100718003E08C0003D08C61A3F08C100A22B0000D1
:1007280000000000000000000000000000000000C1
:10073800000000000000000000000000471DBF2B63
:10074800000140044104031DBA2B0001C7193408F5
:10075800B8000001C7193508B9000001C7193608E3
:10076800BA000001C7193708BB00D52BC008031908
:10077800C103C003CA2B00000000000000000000F5
:100788000000000000000000000000000000000061
:100798000000000000000000000000000000000051
:1007A8000000C6160001380439043A043B04031952
:1007B800EB2BB803380A031DEF2BB903390A031DC5
:1007C800F32BBA033A0A031DF72BBB03F92BC61206
:1007D8000000000000000000000000000000000011
:1007E80000000000000000000000460885005D2BA6
:0607F80008008301552AF0
:02400E00D431AB
:0A420000D0000200050032000300A8
:00000001FF
