:02000000FD2BD6
:10045A008312A6002608A5002508A000A101A10A6A
:10046A0027309C228312270808008312A900290832
:10047A00A7002708A0000230A8002808A1002A30F7
:10048A009C2283122B08A6002A08A500080008301F
:10049A00831681008B010130831285000E3083168A
:1004AA00850006309500073083129900831699015A
:1004BA0008004C2200303A2283122608AE00250892
:1004CA00AD0003302D228312CA004A08AF00023061
:1004DA002D228312CB004B08B00004302D22831248
:1004EA00CC004C08B1000B235F2A8312A401A5019A
:1004FA00201C852A2208A4070318A50A2308A50791
:10050A0001300310A20DA30DFF3E031D862A013000
:10051A000310A10CA00CFF3E031D8D2A2008210404
:10052A00031D7D2A2508A1002408A00008008312C3
:10053A00A4002408A2002208A30083169C18A22A59
:10054A008312200883169B0001308312A102210A1C
:10055A000319080083169C18AF2A7F308312A20061
:10056A00220883169C051C141A088312A200230869
:10057A0084002208831380000130A2002208A30706
:10058A000130A200220883169B07A92A0030831291
:10059A00AC000030AB000030AA000030A900201CDB
:1005AA00EA2A2408A907250803110318013E031D96
:1005BA00AA07260803110318013E031DAB072708E3
:1005CA0003110318013E031DAC070130A8000310F4
:1005DA00A40DA50DA60DA70DA80BEC2A013003103A
:1005EA00A30CA20CA10CA00CFF3E031DF42A2308A5
:1005FA00220421042004031DD42A2C08A3002B085A
:10060A00A2002A08A1002908A00008008312C60136
:10061A00C701C801C9012D08A0002E08A100A20126
:10062A00A3010030A7000030A6002B30A5006730D8
:10063A00A400CB2283122308B7002208B60021089F
:10064A00B5002008B4002F08B200B3013208A00098
:10065A003308A1005730A2000430A3007A22831283
:10066A002108BD002008BC003008B200B3013208DE
:10067A00A0003308A1005730A2000430A3007A2258
:10068A0083122108BF002008BE003108B200B3015E
:10069A003208A0003308A1005730A2000430A3009A
:1006AA007A2283122108C3002008C200C401C501AE
:1006BA000030BB000030BA000030B9000030B8008A
:1006CA00C001C1010508C7004810471D4814481851
:1006DA0042084818C400481843084818C500481872
:1006EA004716C4080319C503C4030001440445049A
:1006FA0003194712481C4811C60148080D39013A26
:10070A0003194614083A0319C61446184815461818
:10071A003C084618C00046183D084618C10046184D
:10072A00C815C6184815C6183E08C618C000C61807
:10073A003F08C618C100C618C811481DBF2B0001C2
:10074A0040044104031DBA2B0001C8193408B8003B
:10075A000001C8193508B9000001C8193608BA00DD
:10076A000001C8193708BB00D52BC0080319C103FB
:10077A00C003CA2B000000000000000000000000B7
:10078A00000000000000000000000000000000005F
:10079A00000000000000000000000000000000004F
:1007AA00C7160001380439043A043B040319EB2B39
:1007BA00B803380A031DEF2BB903390A031DF32BBB
:1007CA00BA033A0A031DF72BBB03F92BC712000021
:1007DA00000000000000000000000000000000000F
:1007EA00000000000000000047088500672B080091
:0407FA0083015E2AEF
:02400E00D431AB
:0A4200003C00000005003200010040
:00000001FF
